{
  "contractName": "MyApp",
  "abi": [
    {
      "inputs": [],
      "stateMutability": "nonpayable",
      "type": "constructor"
    },
    {
      "anonymous": false,
      "inputs": [
        {
          "indexed": false,
          "internalType": "string",
          "name": "name",
          "type": "string"
        },
        {
          "indexed": false,
          "internalType": "address",
          "name": "_address",
          "type": "address"
        }
      ],
      "name": "ManufacturerCreated",
      "type": "event"
    },
    {
      "anonymous": false,
      "inputs": [
        {
          "indexed": false,
          "internalType": "uint256",
          "name": "id",
          "type": "uint256"
        },
        {
          "indexed": false,
          "internalType": "address",
          "name": "newOwner",
          "type": "address"
        }
      ],
      "name": "OwnershipUpdated",
      "type": "event"
    },
    {
      "anonymous": false,
      "inputs": [
        {
          "indexed": false,
          "internalType": "uint256",
          "name": "id",
          "type": "uint256"
        },
        {
          "indexed": false,
          "internalType": "address",
          "name": "manufacturer",
          "type": "address"
        }
      ],
      "name": "ProductCreated",
      "type": "event"
    },
    {
      "inputs": [
        {
          "internalType": "address",
          "name": "",
          "type": "address"
        }
      ],
      "name": "manufacturers",
      "outputs": [
        {
          "internalType": "bool",
          "name": "exists",
          "type": "bool"
        },
        {
          "internalType": "string",
          "name": "name",
          "type": "string"
        },
        {
          "internalType": "address",
          "name": "_address",
          "type": "address"
        }
      ],
      "stateMutability": "view",
      "type": "function",
      "constant": true
    },
    {
      "inputs": [],
      "name": "owner",
      "outputs": [
        {
          "internalType": "address",
          "name": "",
          "type": "address"
        }
      ],
      "stateMutability": "view",
      "type": "function",
      "constant": true
    },
    {
      "inputs": [
        {
          "internalType": "string",
          "name": "_name",
          "type": "string"
        },
        {
          "internalType": "address",
          "name": "_address",
          "type": "address"
        }
      ],
      "name": "createManufacturer",
      "outputs": [],
      "stateMutability": "nonpayable",
      "type": "function"
    },
    {
      "inputs": [
        {
          "internalType": "string",
          "name": "_name",
          "type": "string"
        },
        {
          "internalType": "string",
          "name": "_model",
          "type": "string"
        }
      ],
      "name": "createProduct",
      "outputs": [],
      "stateMutability": "nonpayable",
      "type": "function"
    },
    {
      "inputs": [
        {
          "internalType": "uint256",
          "name": "_id",
          "type": "uint256"
        }
      ],
      "name": "getProduct",
      "outputs": [
        {
          "components": [
            {
              "internalType": "bool",
              "name": "exists",
              "type": "bool"
            },
            {
              "internalType": "uint256",
              "name": "id",
              "type": "uint256"
            },
            {
              "internalType": "string",
              "name": "name",
              "type": "string"
            },
            {
              "internalType": "string",
              "name": "model",
              "type": "string"
            },
            {
              "internalType": "address",
              "name": "manufacturer",
              "type": "address"
            },
            {
              "internalType": "address",
              "name": "curOwner",
              "type": "address"
            },
            {
              "internalType": "address[]",
              "name": "owners",
              "type": "address[]"
            }
          ],
          "internalType": "struct MyApp.Product",
          "name": "",
          "type": "tuple"
        }
      ],
      "stateMutability": "view",
      "type": "function",
      "constant": true
    },
    {
      "inputs": [
        {
          "internalType": "uint256",
          "name": "_id",
          "type": "uint256"
        },
        {
          "internalType": "address",
          "name": "_newOwner",
          "type": "address"
        }
      ],
      "name": "updateOwnership",
      "outputs": [],
      "stateMutability": "nonpayable",
      "type": "function"
    }
  ],
  "bytecode": "0x6080604052600060015534801561001557600080fd5b50600080546001600160a01b03191633179055610bcd806100376000396000f3fe608060405234801561001057600080fd5b50600436106100625760003560e01c80635d50e808146100675780636b5eb09c1461007c57806387592bce146100a75780638da5cb5b146100ba578063b9db15b4146100e5578063cc0266f714610105575b600080fd5b61007a610075366004610886565b610118565b005b61008f61008a366004610865565b61022c565b60405161009e939291906109fb565b60405180910390f35b61007a6100b53660046108d2565b6102e4565b6000546100cd906001600160a01b031681565b6040516001600160a01b03909116815260200161009e565b6100f86100f3366004610933565b610437565b60405161009e9190610a58565b61007a61011336600461094b565b610655565b6000546001600160a01b031633146101925760405162461bcd60e51b815260206004820152603260248201527f4f6e6c79206f776e657220697320617574686f726973656420746f206372656160448201527174652061206d616e7566616374757265722160701b60648201526084015b60405180910390fd5b6001600160a01b0381166000908152600260209081526040909120805460ff191660019081178255845191926101cf929184019190860190610729565b506002810180546001600160a01b0319166001600160a01b0384161790556040517fb221316567f463674f49cbde1b8ee91580960ece70679c5a79bf92f916d8a0289061021f9085908590610a2e565b60405180910390a1505050565b6002602052600090815260409020805460018201805460ff909216929161025290610b15565b80601f016020809104026020016040519081016040528092919081815260200182805461027e90610b15565b80156102cb5780601f106102a0576101008083540402835291602001916102cb565b820191906000526020600020905b8154815290600101906020018083116102ae57829003601f168201915b505050600290930154919250506001600160a01b031683565b3360009081526002602052604090205460ff1615156001146103485760405162461bcd60e51b815260206004820152601b60248201527f596f7520617265206e6f742061204d616e7566616374757265722100000000006044820152606401610189565b600180546000908152600360209081526040909120805460ff191683178155825492810192909255835161038491600284019190860190610729565b50815161039a9060038301906020850190610729565b50600481018054336001600160a01b03199182168117909255600583018054821683179055600683018054600181810183556000928352602083209091018054909316909317909155815491906103f083610b50565b91905055507fe8bb4e90e950f7b76a8c4e472b3b5e01d41c478f9eeaea36b4ba991f51133f91600180546104249190610afe565b604080519182523360208301520161021f565b6040805160e080820183526000808352602080840182905260608486018190528085018190526080850183905260a0850183905260c0850152858252600381529084902084519283018552805460ff16151583526001810154918301919091526002810180549394929391928401916104af90610b15565b80601f01602080910402602001604051908101604052809291908181526020018280546104db90610b15565b80156105285780601f106104fd57610100808354040283529160200191610528565b820191906000526020600020905b81548152906001019060200180831161050b57829003601f168201915b5050505050815260200160038201805461054190610b15565b80601f016020809104026020016040519081016040528092919081815260200182805461056d90610b15565b80156105ba5780601f1061058f576101008083540402835291602001916105ba565b820191906000526020600020905b81548152906001019060200180831161059d57829003601f168201915b505050918352505060048201546001600160a01b039081166020808401919091526005840154909116604080840191909152600684018054825181850281018501909352808352606090940193919290919083018282801561064557602002820191906000526020600020905b81546001600160a01b03168152600190910190602001808311610627575b5050505050815250509050919050565b600082815260036020526040902060058101546001600160a01b031633146106b05760405162461bcd60e51b815260206004820152600e60248201526d139bdd08185d5d1a1bdc9a5e995960921b6044820152606401610189565b6005810180546001600160a01b0384166001600160a01b031991821681179092556006830180546001810182556000918252602091829020018054909216831790915560408051868152918201929092527f17f6791f79c251dfe73501956852b1099624d6a4c5ce9744ad98825c5b8dd91a910161021f565b82805461073590610b15565b90600052602060002090601f016020900481019282610757576000855561079d565b82601f1061077057805160ff191683800117855561079d565b8280016001018555821561079d579182015b8281111561079d578251825591602001919060010190610782565b506107a99291506107ad565b5090565b5b808211156107a957600081556001016107ae565b80356001600160a01b03811681146107d957600080fd5b919050565b600082601f8301126107ee578081fd5b813567ffffffffffffffff8082111561080957610809610b81565b604051601f8301601f19908116603f0116810190828211818310171561083157610831610b81565b81604052838152866020858801011115610849578485fd5b8360208701602083013792830160200193909352509392505050565b600060208284031215610876578081fd5b61087f826107c2565b9392505050565b60008060408385031215610898578081fd5b823567ffffffffffffffff8111156108ae578182fd5b6108ba858286016107de565b9250506108c9602084016107c2565b90509250929050565b600080604083850312156108e4578182fd5b823567ffffffffffffffff808211156108fb578384fd5b610907868387016107de565b9350602085013591508082111561091c578283fd5b50610929858286016107de565b9150509250929050565b600060208284031215610944578081fd5b5035919050565b6000806040838503121561095d578182fd5b823591506108c9602084016107c2565b6000815180845260208085019450808401835b838110156109a55781516001600160a01b031687529582019590820190600101610980565b509495945050505050565b60008151808452815b818110156109d5576020818501810151868301820152016109b9565b818111156109e65782602083870101525b50601f01601f19169290920160200192915050565b8315158152606060208201526000610a1660608301856109b0565b905060018060a01b0383166040830152949350505050565b604081526000610a4160408301856109b0565b905060018060a01b03831660208301529392505050565b60208152815115156020820152602082015160408201526000604083015160e06060840152610a8b6101008401826109b0565b90506060840151601f1980858403016080860152610aa983836109b0565b925060018060a01b0360808701511660a086015260a08601519150610ad960c08601836001600160a01b03169052565b60c08601519150808584030160e086015250610af5828261096d565b95945050505050565b600082821015610b1057610b10610b6b565b500390565b600181811c90821680610b2957607f821691505b60208210811415610b4a57634e487b7160e01b600052602260045260246000fd5b50919050565b6000600019821415610b6457610b64610b6b565b5060010190565b634e487b7160e01b600052601160045260246000fd5b634e487b7160e01b600052604160045260246000fdfea2646970667358221220a2db0ed2fc59ac7cf9bfd0ffaabd3f2cce2903a0f60598e2403e4a7f9021b6cd64736f6c63430008040033",
  "immutableReferences": {},
  "source": "// pragma solidity >=0.8.0 <0.9.0;\r\n// SPDX-License-Identifier: MIT\r\npragma solidity >=0.8.0 <0.9.0;\r\n\r\ncontract MyApp {\r\n\r\n\t/*\r\n\t\tholds the address of the owner of the contract\r\n\t\towner -> the address which deploys this smart contract on the network.\r\n\t*/\r\n\taddress public owner;\r\n\t/*\r\n\t\tproductId is used to provide a unique ID to every product that is added.\r\n\t\tIt increments every time a new product is created.\r\n\t*/\r\n\tuint productId = 0;\r\n\r\n\t// define all custom structs\r\n\r\n\tstruct Manufacturer {\r\n\t\tbool exists;\r\n\t\tstring name;\r\n\t\taddress _address;\r\n\t}\r\n\r\n\tstruct Product {\r\n\t\tbool exists;\r\n\t\tuint id;\r\n\t\tstring name;\r\n\t\tstring model;\r\n\t\taddress manufacturer;\r\n\t\taddress curOwner;\r\n\t\taddress[] owners;\r\n\t}\r\n\r\n\t// struct Customer {\r\n\t// \tbool exists;\r\n\t// \tstring name;\r\n\t// \taddress _address;\r\n\t// }\r\n\r\n\r\n\t// mapping(address => Customer) public customers;\r\n\t// mappings to store manufacturers and products informations\r\n\tmapping(address => Manufacturer) public manufacturers;\r\n\tmapping(uint => Product) products;\r\n\r\n\r\n\t// events to be emitted when certain operatons are completed\r\n\tevent ManufacturerCreated(string name, address _address);\r\n\tevent ProductCreated(uint id, address manufacturer);\r\n\tevent OwnershipUpdated(uint id, address newOwner);\r\n\r\n\r\n\t/*\r\n\t\tConstructor is called when this contract is deployed on the network.\r\n\t\tIt sets the owner of the contract as the address which deploys it.\r\n\t*/\r\n\tconstructor() {\r\n\t\towner = msg.sender;\r\n\t}\r\n\r\n\r\n\t/*\r\n\t\tUsed to create a new Manufacturer\r\n\t\tCan be called only by the owner of the contract\r\n\t*/\r\n\tfunction createManufacturer(string memory _name, address _address) public {\r\n\t\trequire(msg.sender == owner, \"Only owner is authorised to create a manufacturer!\");\r\n\r\n\t\tManufacturer storage m = manufacturers[_address];\r\n\t\tm.exists = true;\r\n\t\tm.name = _name;\r\n\t\tm._address = _address;\r\n\t\temit ManufacturerCreated(_name, _address);\r\n\t}\r\n\r\n\r\n\t/*\r\n\t\tUsed to create a new product\r\n\t\tCan be called only by the manufacturer\r\n\t*/\r\n\tfunction createProduct(string memory _name, string memory _model) public {\r\n\t\trequire(manufacturers[msg.sender].exists == true, \"You are not a Manufacturer!\");\r\n\r\n\t\tProduct storage p = products[productId];\r\n\t\tp.exists = true;\r\n\t\tp.id = productId;\r\n\t\tp.name = _name;\r\n\t\tp.model = _model;\r\n\t\tp.manufacturer = msg.sender;\r\n\t\tp.curOwner = msg.sender;\r\n\t\t// push cur owner(manufacturer) to owners array\r\n\t\tp.owners.push(msg.sender);\r\n\r\n\t\tproductId++;\r\n\t\temit ProductCreated(productId-1, msg.sender);\r\n\t}\r\n\r\n\r\n\t/*\r\n\t\tReturns a tuple of a product struct\r\n\t\t- p.owners[0] is the first owner (manufacturer)\r\n\t\t- last address in the owners list is the current owner\r\n\t*/\r\n\tfunction getProduct(uint _id) public view returns(Product memory) {\r\n\t\treturn products[_id];\r\n\t}\r\n\r\n\r\n\t/*\r\n\t\tThis function is called when an owner sells a product to new customer.\r\n\t\tIt updates the current owner of the product, and also adds them to owners list.\r\n\t\t* only the current owner of the product is allowed to sell it\r\n\t*/\r\n\tfunction updateOwnership(uint _id, address _newOwner) public {\r\n\t\tProduct storage p = products[_id];\r\n\t\trequire(p.curOwner == msg.sender, \"Not authorized\");\r\n\t\t\r\n\t\tp.curOwner = _newOwner;\r\n\t\tp.owners.push(_newOwner);\r\n\r\n\t\temit OwnershipUpdated(_id, _newOwner);\r\n\t}\r\n\r\n}",
  "sourcePath": "C:\\Users\\DELL\\Desktop\\project\\fake-product-prevention-using-blockchain-main\\contracts\\MyApp.sol",
  "compiler": {
    "name": "solc",
    "version": "0.8.4+commit.c7e474f2.Emscripten.clang"
  },
  "schemaVersion": "3.4.10",
  "updatedAt": "2023-06-25T06:59:26.624Z",
  "networkType": "ethereum",
  "devdoc": {
    "kind": "dev",
    "methods": {},
    "version": 1
  },
  "userdoc": {
    "kind": "user",
    "methods": {},
    "version": 1
  }
}